{"abi":[{"type":"function","name":"averageScore","inputs":[{"name":"","type":"address","internalType":"address"}],"outputs":[{"name":"","type":"uint256","internalType":"uint256"}],"stateMutability":"view"},{"type":"function","name":"feedbackCount","inputs":[{"name":"","type":"address","internalType":"address"}],"outputs":[{"name":"","type":"uint256","internalType":"uint256"}],"stateMutability":"view"},{"type":"function","name":"feedbacks","inputs":[{"name":"","type":"address","internalType":"address"},{"name":"","type":"uint256","internalType":"uint256"}],"outputs":[{"name":"from","type":"address","internalType":"address"},{"name":"to","type":"address","internalType":"address"},{"name":"score","type":"uint8","internalType":"uint8"},{"name":"comment","type":"string","internalType":"string"},{"name":"timestamp","type":"uint256","internalType":"uint256"}],"stateMutability":"view"},{"type":"function","name":"getAverageScore","inputs":[{"name":"agent","type":"address","internalType":"address"}],"outputs":[{"name":"","type":"uint256","internalType":"uint256"}],"stateMutability":"view"},{"type":"function","name":"getFeedbackCount","inputs":[{"name":"agent","type":"address","internalType":"address"}],"outputs":[{"name":"","type":"uint256","internalType":"uint256"}],"stateMutability":"view"},{"type":"function","name":"getLatestFeedback","inputs":[{"name":"agent","type":"address","internalType":"address"},{"name":"count","type":"uint256","internalType":"uint256"}],"outputs":[{"name":"","type":"tuple[]","internalType":"struct DOFReputationRegistry.Feedback[]","components":[{"name":"from","type":"address","internalType":"address"},{"name":"to","type":"address","internalType":"address"},{"name":"score","type":"uint8","internalType":"uint8"},{"name":"comment","type":"string","internalType":"string"},{"name":"timestamp","type":"uint256","internalType":"uint256"}]}],"stateMutability":"view"},{"type":"function","name":"giveFeedback","inputs":[{"name":"to","type":"address","internalType":"address"},{"name":"score","type":"uint8","internalType":"uint8"},{"name":"comment","type":"string","internalType":"string"}],"outputs":[],"stateMutability":"nonpayable"},{"type":"event","name":"FeedbackGiven","inputs":[{"name":"from","type":"address","indexed":true,"internalType":"address"},{"name":"to","type":"address","indexed":true,"internalType":"address"},{"name":"score","type":"uint8","indexed":false,"internalType":"uint8"},{"name":"comment","type":"string","indexed":false,"internalType":"string"}],"anonymous":false}],"bytecode":{"object":"0x608060405234801561000f575f80fd5b50610b4e8061001d5f395ff3fe608060405234801561000f575f80fd5b506004361061007a575f3560e01c8063a11ab69111610058578063a11ab691146100f2578063d06509fd14610111578063da1b3fe214610139578063e91dde1414610158575f80fd5b806301ff73e71461007e57806372c85fb7146100b95780638c6529c1146100ce575b5f80fd5b6100a661008c3660046106e8565b6001600160a01b03165f9081526002602052604090205490565b6040519081526020015b60405180910390f35b6100cc6100c7366004610708565b610178565b005b6100e16100dc366004610796565b6103df565b6040516100b0959493929190610801565b6100a66101003660046106e8565b60016020525f908152604090205481565b6100a661011f3660046106e8565b6001600160a01b03165f9081526001602052604090205490565b6100a66101473660046106e8565b60026020525f908152604090205481565b61016b610166366004610796565b6104c2565b6040516100b09190610847565b60648360ff1611156101c15760405162461bcd60e51b815260206004820152600d60248201526c053636f7265206d61782031303609c1b60448201526064015b60405180910390fd5b6001600160a01b038416330361020c5760405162461bcd60e51b815260206004820152601060248201526f43616e6e6f742073656c662d7261746560801b60448201526064016101b8565b6001600160a01b0384165f8181526020818152604091829020825160a0810184523381528083019490945260ff8716848401528251601f86018390048302810183019093528483529291606083019186908690819084018382808284375f9201829052509385525050426020938401525083546001818101865594825290829020835160049092020180546001600160a01b039283166001600160a01b0319909116178155918301519382018054604085015160ff16600160a01b026001600160a81b0319909116959092169490941717909255606081015190919060028201906102f79082610988565b50608091909101516003909101556001600160a01b0384165f90815260026020526040812054610328906001610a58565b6001600160a01b0386165f90815260026020908152604080832054600190925290912054919250829160ff87169161035f91610a6b565b6103699190610a58565b6103739190610a82565b6001600160a01b0386165f8181526001602090815260408083209490945560029052829020839055905133907f77211d90fc3b4e1a84ac2c1cc5dd8f151cc8ba3864e1b8bc6230b0456047fcf8906103d090889088908890610aa1565b60405180910390a35050505050565b5f602052815f5260405f2081815481106103f7575f80fd5b5f9182526020909120600490910201805460018201546002830180546001600160a01b0393841696509282169450600160a01b90910460ff16929161043b90610902565b80601f016020809104026020016040519081016040528092919081815260200182805461046790610902565b80156104b25780601f10610489576101008083540402835291602001916104b2565b820191905f5260205f20905b81548152906001019060200180831161049557829003601f168201915b5050505050908060030154905085565b6001600160a01b0382165f90815260208190526040812080546060929084106104eb575f6104f8565b81546104f8908590610ad9565b82549091505f9061050a908390610ad9565b90505f8167ffffffffffffffff811115610526576105266108ee565b60405190808252806020026020018201604052801561057c57816020015b6040805160a0810182525f8082526020808301829052928201819052606080830152608082015282525f199092019101816105445790505b5090505f5b828110156106c057846105948286610a58565b815481106105a4576105a4610aec565b5f9182526020918290206040805160a08101825260049390930290910180546001600160a01b039081168452600182015490811694840194909452600160a01b90930460ff169082015260028201805491929160608401919061060690610902565b80601f016020809104026020016040519081016040528092919081815260200182805461063290610902565b801561067d5780601f106106545761010080835404028352916020019161067d565b820191905f5260205f20905b81548152906001019060200180831161066057829003601f168201915b505050505081526020016003820154815250508282815181106106a2576106a2610aec565b602002602001018190525080806106b890610b00565b915050610581565b5093505050505b92915050565b80356001600160a01b03811681146106e3575f80fd5b919050565b5f602082840312156106f8575f80fd5b610701826106cd565b9392505050565b5f805f806060858703121561071b575f80fd5b610724856106cd565b9350602085013560ff81168114610739575f80fd5b9250604085013567ffffffffffffffff80821115610755575f80fd5b818701915087601f830112610768575f80fd5b813581811115610776575f80fd5b886020828501011115610787575f80fd5b95989497505060200194505050565b5f80604083850312156107a7575f80fd5b6107b0836106cd565b946020939093013593505050565b5f81518084525f5b818110156107e2576020818501810151868301820152016107c6565b505f602082860101526020601f19601f83011685010191505092915050565b6001600160a01b0386811682528516602082015260ff8416604082015260a0606082018190525f90610835908301856107be565b90508260808301529695505050505050565b5f6020808301818452808551808352604092508286019150828160051b8701018488015f5b838110156108e057888303603f19018552815180516001600160a01b0390811685528882015116888501528681015160ff168785015260608082015160a082870181905291906108be838801826107be565b608094850151979094019690965250509487019492509086019060010161086c565b509098975050505050505050565b634e487b7160e01b5f52604160045260245ffd5b600181811c9082168061091657607f821691505b60208210810361093457634e487b7160e01b5f52602260045260245ffd5b50919050565b601f821115610983575f81815260208120601f850160051c810160208610156109605750805b601f850160051c820191505b8181101561097f5782815560010161096c565b5050505b505050565b815167ffffffffffffffff8111156109a2576109a26108ee565b6109b6816109b08454610902565b8461093a565b602080601f8311600181146109e9575f84156109d25750858301515b5f19600386901b1c1916600185901b17855561097f565b5f85815260208120601f198616915b82811015610a17578886015182559484019460019091019084016109f8565b5085821015610a3457878501515f19600388901b60f8161c191681555b5050505050600190811b01905550565b634e487b7160e01b5f52601160045260245ffd5b808201808211156106c7576106c7610a44565b80820281158282048414176106c7576106c7610a44565b5f82610a9c57634e487b7160e01b5f52601260045260245ffd5b500490565b60ff8416815260406020820152816040820152818360608301375f818301606090810191909152601f909201601f1916010192915050565b818103818111156106c7576106c7610a44565b634e487b7160e01b5f52603260045260245ffd5b5f60018201610b1157610b11610a44565b506001019056fea26469706673582212201b7d92456c6f2b440a5433154e4ee0a2fb37ed3b935a7e5336ed55dccc78625464736f6c63430008140033","linkReferences":{}},"methodIdentifiers":{"averageScore(address)":"a11ab691","feedbackCount(address)":"da1b3fe2","feedbacks(address,uint256)":"8c6529c1","getAverageScore(address)":"d06509fd","getFeedbackCount(address)":"01ff73e7","getLatestFeedback(address,uint256)":"e91dde14","giveFeedback(address,uint8,string)":"72c85fb7"},"id":17}