{"abi":[{"type":"function","name":"addressToTokenId","inputs":[{"name":"","type":"address","internalType":"address"}],"outputs":[{"name":"","type":"uint256","internalType":"uint256"}],"stateMutability":"view"},{"type":"function","name":"agents","inputs":[{"name":"","type":"uint256","internalType":"uint256"}],"outputs":[{"name":"owner","type":"address","internalType":"address"},{"name":"metadataURI","type":"string","internalType":"string"},{"name":"registeredAt","type":"uint256","internalType":"uint256"},{"name":"active","type":"bool","internalType":"bool"}],"stateMutability":"view"},{"type":"function","name":"deactivate","inputs":[{"name":"tokenId","type":"uint256","internalType":"uint256"}],"outputs":[],"stateMutability":"nonpayable"},{"type":"function","name":"getAgent","inputs":[{"name":"tokenId","type":"uint256","internalType":"uint256"}],"outputs":[{"name":"","type":"tuple","internalType":"struct DOFIdentityRegistry.Agent","components":[{"name":"owner","type":"address","internalType":"address"},{"name":"metadataURI","type":"string","internalType":"string"},{"name":"registeredAt","type":"uint256","internalType":"uint256"},{"name":"active","type":"bool","internalType":"bool"}]}],"stateMutability":"view"},{"type":"function","name":"isRegistered","inputs":[{"name":"addr","type":"address","internalType":"address"}],"outputs":[{"name":"","type":"bool","internalType":"bool"}],"stateMutability":"view"},{"type":"function","name":"nextTokenId","inputs":[],"outputs":[{"name":"","type":"uint256","internalType":"uint256"}],"stateMutability":"view"},{"type":"function","name":"register","inputs":[{"name":"metadataURI","type":"string","internalType":"string"}],"outputs":[{"name":"","type":"uint256","internalType":"uint256"}],"stateMutability":"nonpayable"},{"type":"function","name":"totalAgents","inputs":[],"outputs":[{"name":"","type":"uint256","internalType":"uint256"}],"stateMutability":"view"},{"type":"function","name":"updateMetadata","inputs":[{"name":"tokenId","type":"uint256","internalType":"uint256"},{"name":"metadataURI","type":"string","internalType":"string"}],"outputs":[],"stateMutability":"nonpayable"},{"type":"event","name":"AgentDeactivated","inputs":[{"name":"tokenId","type":"uint256","indexed":true,"internalType":"uint256"}],"anonymous":false},{"type":"event","name":"AgentRegistered","inputs":[{"name":"tokenId","type":"uint256","indexed":true,"internalType":"uint256"},{"name":"owner","type":"address","indexed":true,"internalType":"address"},{"name":"metadataURI","type":"string","indexed":false,"internalType":"string"}],"anonymous":false},{"type":"event","name":"AgentUpdated","inputs":[{"name":"tokenId","type":"uint256","indexed":true,"internalType":"uint256"},{"name":"metadataURI","type":"string","indexed":false,"internalType":"string"}],"anonymous":false}],"bytecode":{"object":"0x608060405234801561000f575f80fd5b50610a9b8061001d5f395ff3fe608060405234801561000f575f80fd5b5060043610610090575f3560e01c806375794a3c1161006357806375794a3c14610122578063916b9bef1461012b578063c3c5a5471461013e578063c505371214610178578063f2c298be14610180575f80fd5b80632de5aaf714610094578063513856c8146100bd57806353c8388e146100e05780636511bf2e146100f5575b5f80fd5b6100a76100a2366004610624565b610193565b6040516100b4919061067e565b60405180910390f35b6100d06100cb366004610624565b61029f565b6040516100b494939291906106cd565b6100f36100ee36600461074d565b61035b565b005b610114610103366004610795565b60016020525f908152604090205481565b6040519081526020016100b4565b61011460025481565b6100f3610139366004610624565b61040c565b61016861014c366004610795565b6001600160a01b03165f90815260016020526040902054151590565b60405190151581526020016100b4565b600254610114565b61011461018e3660046107c2565b61049f565b6101c660405180608001604052805f6001600160a01b03168152602001606081526020015f81526020015f151581525090565b5f828152602081815260409182902082516080810190935280546001600160a01b0316835260018101805491928401916101ff90610801565b80601f016020809104026020016040519081016040528092919081815260200182805461022b90610801565b80156102765780601f1061024d57610100808354040283529160200191610276565b820191905f5260205f20905b81548152906001019060200180831161025957829003601f168201915b50505091835250506002820154602082015260039091015460ff16151560409091015292915050565b5f60208190529081526040902080546001820180546001600160a01b0390921692916102ca90610801565b80601f01602080910402602001604051908101604052809291908181526020018280546102f690610801565b80156103415780601f1061031857610100808354040283529160200191610341565b820191905f5260205f20905b81548152906001019060200180831161032457829003601f168201915b50505050600283015460039093015491929160ff16905084565b5f838152602081905260409020546001600160a01b031633146103b15760405162461bcd60e51b81526020600482015260096024820152682737ba1037bbb732b960b91b60448201526064015b60405180910390fd5b5f8381526020819052604090206001016103cc82848361089b565b50827ff0677ec077e6eec8e31d4e8be0cb20b797f3a9dc243e2ddc641532c0ff41203683836040516103ff929190610957565b60405180910390a2505050565b5f818152602081905260409020546001600160a01b0316331461045d5760405162461bcd60e51b81526020600482015260096024820152682737ba1037bbb732b960b91b60448201526064016103a8565b5f81815260208190526040808220600301805460ff191690555182917fc2fb7f8575ac3990e70361684edfc4d283931ea9a03dfa28766bf376a3934aa291a250565b335f90815260016020526040812054156104f05760405162461bcd60e51b8152602060048201526012602482015271105b1c9958591e481c9959da5cdd195c995960721b60448201526064016103a8565b60028054905f6104ff83610985565b91905055506040518060800160405280336001600160a01b0316815260200184848080601f0160208091040260200160405190810160405280939291908181526020018383808284375f92018290525093855250504260208085019190915260016040948501819052600254845283825293909220845181546001600160a01b0319166001600160a01b039091161781559184015191928301916105a49150826109a9565b506040828101516002838101919091556060909301516003909201805460ff1916921515929092179091559054335f818152600160205283902082905591517f0d063c6022bff16d09991a9f91882ffa112f5fb2529136f65eb4c77bbd047e43906106129087908790610957565b60405180910390a35060025492915050565b5f60208284031215610634575f80fd5b5035919050565b5f81518084525f5b8181101561065f57602081850181015186830182015201610643565b505f602082860101526020601f19601f83011685010191505092915050565b602080825282516001600160a01b031682820152820151608060408301525f906106ab60a084018261063b565b9050604084015160608401526060840151151560808401528091505092915050565b6001600160a01b03851681526080602082018190525f906106f09083018661063b565b60408301949094525090151560609091015292915050565b5f8083601f840112610718575f80fd5b50813567ffffffffffffffff81111561072f575f80fd5b602083019150836020828501011115610746575f80fd5b9250929050565b5f805f6040848603121561075f575f80fd5b83359250602084013567ffffffffffffffff81111561077c575f80fd5b61078886828701610708565b9497909650939450505050565b5f602082840312156107a5575f80fd5b81356001600160a01b03811681146107bb575f80fd5b9392505050565b5f80602083850312156107d3575f80fd5b823567ffffffffffffffff8111156107e9575f80fd5b6107f585828601610708565b90969095509350505050565b600181811c9082168061081557607f821691505b60208210810361083357634e487b7160e01b5f52602260045260245ffd5b50919050565b634e487b7160e01b5f52604160045260245ffd5b601f821115610896575f81815260208120601f850160051c810160208610156108735750805b601f850160051c820191505b818110156108925782815560010161087f565b5050505b505050565b67ffffffffffffffff8311156108b3576108b3610839565b6108c7836108c18354610801565b8361084d565b5f601f8411600181146108f8575f85156108e15750838201355b5f19600387901b1c1916600186901b178355610950565b5f83815260209020601f19861690835b828110156109285786850135825560209485019460019092019101610908565b5086821015610944575f1960f88860031b161c19848701351681555b505060018560011b0183555b5050505050565b60208152816020820152818360408301375f818301604090810191909152601f909201601f19160101919050565b5f600182016109a257634e487b7160e01b5f52601160045260245ffd5b5060010190565b815167ffffffffffffffff8111156109c3576109c3610839565b6109d7816109d18454610801565b8461084d565b602080601f831160018114610a0a575f84156109f35750858301515b5f19600386901b1c1916600185901b178555610892565b5f85815260208120601f198616915b82811015610a3857888601518255948401946001909101908401610a19565b5085821015610a5557878501515f19600388901b60f8161c191681555b5050505050600190811b0190555056fea26469706673582212203f436018ef5dd3f968cfec019562e545c7e6cd7d92915fd31c091f61ff4c855b64736f6c63430008140033","linkReferences":{}},"methodIdentifiers":{"addressToTokenId(address)":"6511bf2e","agents(uint256)":"513856c8","deactivate(uint256)":"916b9bef","getAgent(uint256)":"2de5aaf7","isRegistered(address)":"c3c5a547","nextTokenId()":"75794a3c","register(string)":"f2c298be","totalAgents()":"c5053712","updateMetadata(uint256,string)":"53c8388e"},"id":16}